:100000000C949F000C94BC000C94BC000C94BC009D
:100010000C94BC000C94BC000C94BC000C94BC0070
:100020000C94BC000C94BC000C94BC000C94BC0060
:100030000C94BC000C94BC000C94C8000C94BC0044
:100040000C94BC000C94BC000C94BC000C94BC0040
:100050000C94BC000C94BC000C94BC000C94BC0030
:100060000C94BC000C94BC004172626F6C00426F37
:10007000746F6E004344794D4300436C61764500D4
:10008000466163696C00476166617300486F6A612D
:1000900073004C6942726F004C616E7A61004E6968
:1000A00065766500506552726F0050656345530078
:1000B0005069416E6F005072594B6500525545446E
:1000C000610053455249450053616C5564005361CA
:1000D0006C75640053696C6C61005465636C6100FD
:1000E00056616C6F7200566572646500596E4852B5
:1000F0007A0068415264440073696C6C6100001FAF
:10010000000000001F00001F101010101F00001F33
:10011000181818181F00001F1C1C1C1C1F00001F93
:100120001E1E1E1E1F00001F1F1F1F1F1F00030774
:100130000F1F0F070300181C1E1F1E1C1800112480
:100140001FBECFEFD8E0DEBFCDBF11E0A0E0B1E031
:10015000E4EBFBE002C005900D92A434B107D9F79F
:1001600021E0A4E4B1E001C01D92AC35B207E1F793
:100170000E94FE040C94D8050C94000082E084BD1B
:1001800093E095BD99EF97BD80936E0078940895A4
:100190001F920F920FB60F9211242F933F934F93FC
:1001A0005F936F937F938F939F93AF93BF93EF93DF
:1001B000FF938091440190914501A0914601B09137
:1001C00047010196A11DB11D809344019093450103
:1001D000A0934601B09347010E944A01FF91EF911D
:1001E000BF91AF919F918F917F916F915F914F914F
:1001F0003F912F910F900FBE0F901F901895CF93A6
:10020000DF93CDB7DEB76B970FB6F894DEBF0FBEA6
:10021000CDBF0E942A0460E080E00E94460420E1F5
:10022000E4E0F1E0CE010196DC0101900D922A9507
:10023000E1F72BE0E4E1F1E0DE01519601900D924F
:100240002A95E1F7FC0101900020E9F73197BF0101
:10025000681B790B0E942E0461E080E00E94460436
:10026000CE014196FC0101900020E9F73197BF01D2
:10027000681B790B0E942E046B960FB6F894DEBFB4
:100280000FBECDBFDF91CF91089510925B010E9408
:10029000FF000895CF93DF931F92CDB7DEB7809113
:1002A0005B018230F9F030F4882369F0813009F481
:1002B0004CC0E5C0843009F4B3C008F477C0853081
:1002C00009F4C6C0DCC0CE0101960E945602882304
:1002D00009F4D5C089818A3209F0D1C082E08093C7
:1002E0005B01CDC060914401709145018091460150
:1002F000909147010E94C70285E591E00E94CB02E0
:100300000E942A0460E080E00E94460465E085E5E2
:1003100091E00E942E042FEF87EA91E62150804061
:100320009040E1F700C0000086E0EEE4F1E0DF017C
:100330001D928A95E9F70E942A0460E080E00E94FD
:10034000460481E080935B019AC0CE0101960E9431
:100350005602882331F1898190914801891709F16A
:100360008093480120914A01E22FF0E0E55BFE4FC7
:1003700080832F5F9BEA299F912D11249695392F19
:10038000330F930F291B20934A010E94FE0289819B
:10039000833239F410924A010E942A0483E0809348
:1003A0005B0189E491E00E94560269C06EE471E04D
:1003B00085E591E00E947B05892BC9F484E0809358
:1003C0005B018091440190914501A0914601B0915B
:1003D0004701809354010E942A0460E080E00E945B
:1003E000460469E081E291E00E942E0448C085E065
:1003F00080935B018091440190914501A091460159
:10040000B0914701809354010E942A0460E080E08B
:100410000E9446046BE08FE191E00E942E042FC001
:100420008091440190914501A0914601B09147010E
:1004300020915401821B9109A109B1098838934187
:10044000A105B105E0F010925B010E94FF0017C00A
:100450008091440190914501A0914601B0914701DE
:1004600020915401821B9109A109B1098838934157
:10047000A105B10520F010925B010E94FF000F90D2
:10048000DF91CF91089584B1867E84B985B1896169
:1004900085B98AB18F778AB98BB180688BB98AB1F7
:1004A000837C8AB98BB18C638BB9089560E06AC094
:1004B0007AB1462F50E0FA01E55DFE4F21E030E0D1
:1004C000008002C0220F331F0A94E2F7372F322B2D
:1004D0003AB93BB1209523232BB900C00000E0E0DE
:1004E0003BC0E33031F429B12095221F2227221F7F
:1004F0000FC023B1AE2FB0E0A15DBE4F30E00C9035
:1005000002C0359527950A94E2F771E027272170FC
:10051000222309F1F0E0EE0FFF1FEE0FFF1FED5C4D
:10052000FE4FE40FF51F2081FC0120832BB1FA015F
:10053000E55DFE4F81E090E0008002C0880F991FCA
:100540000A94E2F7922F982B9BB99AB18095892350
:100550008AB981E00895EF5FE43018F27BB1FA01C7
:10056000E55DFE4F21E030E0008002C0220F331F26
:100570000A94E2F7372F322B3BB93AB12095232367
:100580002AB96F5F643008F493CF80E00895CB01FF
:100590000E9467050895CF93DF93EC010E946205E6
:1005A000AC019C01AFEAB7E40E940705281B390B98
:1005B00036952795820F931F929582958F70892784
:1005C0009F70892769E1689F9001699F300D112410
:1005D000CA01821B930B9927BC01660F771F860FF8
:1005E000971FBC01660F771F68597F4F46E050E0A8
:1005F000CE010E947205DF91CF91089565B1982FC9
:100600009074492F50E055954795559547955595C8
:10061000479555954795982F9078292F30E0022ED1
:10062000232F000C221F330B000C221F331F962F89
:10063000997F492B242B25B968B1982F9071492FA8
:1006400050E0559547955595479555954795982F61
:100650009072292F30E0359527953595279535955A
:100660002795962F997F492B242B28B99BB192600F
:100670009BB99BB191609BB925ED2A95F1F70000DC
:100680009BB19E7F9BB99BB19D7F9BB995ED9A9540
:10069000F1F7000065B120E1829FC0011124AC0197
:1006A00040745527559547955595479555954795C8
:1006B000559547959C0120783327022E232F000C57
:1006C000221F330B000C221F331F362F397F432B81
:1006D000242B25B948B19C012071332735952795E6
:1006E0003595279535952795807299279595879506
:1006F0009595879595958795942F997F292B822B92
:1007000088B98BB182608BB98BB181608BB985ED73
:100710008A95F1F700008BB18E7F8BB98BB18D7FFD
:100720008BB995ED9A95F1F70000089565B1982F72
:100730009074492F50E05595479555954795559597
:10074000479555954795982F9078292F30E0022EA0
:10075000232F000C221F330B000C221F331F962F58
:10076000997F492B242B25B968B1982F9071492F77
:1007700050E0559547955595479555954795982F30
:100780009072292F30E03595279535952795359529
:100790002795962F997F492B242B28B99BB19160DF
:1007A0009BB9EFE9FFE03197F1F700C000009BB182
:1007B0009E7F9BB9EFE9FFE03197F1F700C00000A1
:1007C00065B1F0E18F9FC0011124AC014074552741
:1007D0005595479555954795559547955595479501
:1007E0009C0120783327022E232F000C221F330B6D
:1007F000000C221F331F362F397F432B242B25B9A2
:1008000048B19C012071332735952795359527955B
:100810003595279580729927959587959595879514
:1008200095958795942F997F292B822B88B98BB129
:1008300081608BB98FE99FE00197F1F700C000005C
:100840008BB18E7F8BB9EFE9FFE03197F1F700C0F4
:100850000000089581E00E94960308950F931F936E
:10086000CF93DF93009769F0D62F8C01C0E007C0CB
:10087000F801EC0FF11D80810E94FE02CF5FCD17C1
:10088000B8F3DF91CF911F910F910895623031F04D
:10089000633031F0613029F4805C03C08C5E01C0AC
:1008A0008C5A80680E9496030895EF92FF920F93EE
:1008B0001F93CF93DF937C01862F90E0880F991FC1
:1008C000880F991F880F991F8064C0E0D0E00DC089
:1008D000F701EC0FFD1F149101E0080F0E94960331
:1008E000812F0E94FE022196802FC830D10580F30F
:1008F000DF91CF911F910F91FF90EF900895CF93CB
:10090000DF938FE59AEE0197F1F700C0000085B103
:10091000897F85B988B1897F88B91BB887B186601E
:1009200087B984B1866084B984B1866084B987B19F
:10093000866087B98AB183608AB985B1897F85B9B4
:1009400088B1866088B98BB181608BB98FE99FE0EF
:100950000197F1F700C000008BB18E7F8BB98FE952
:100960009FE00197F1F700C0000085B1897F85B94C
:1009700088B1866088B98BB181608BB98FE99FE0BF
:100980000197F1F700C000008BB18E7F8BB98FE922
:100990009FE00197F1F700C0000085B1897F85B91C
:1009A00088B1897F846088B98BB181608BB98FE908
:1009B0009FE00197F1F700C000008BB18E7F8BB9EB
:1009C0008FE99FE00197F1F700C0000088E20E94E4
:1009D00096038CE00E94960360E0C0E00AC0D1E07C
:1009E000D60F8C2F90E082509F4F0E945504C85F15
:1009F0006D2FC034A0F3DF91CF9108950E94430280
:100A00000E947F040E94BE000E944501FFCFA29F6A
:100A1000B001B39FC001A39F700D811D1124911DD2
:100A2000B29F700D811D1124911D08958F929F9288
:100A3000AF92BF92CF92DF92EF92FF92CF93DF936C
:100A4000EC01688179818A819B816115710581053D
:100A5000910521F464E279ED8BE597E02DE133EF28
:100A600041E050E00E94840549015A019B01AC011C
:100A7000A7EAB1E40E94A3056B017C01ACEEB4EFE0
:100A8000A50194010E94B105DC01CB018C0D9D1DD7
:100A9000AE1DBF1DB7FF03C00197A109B0488883F1
:100AA0009983AA83BB839F77DF91CF91FF90EF90CB
:100AB000DF90CF90BF90AF909F908F9008950E944D
:100AC0001605089580E091E00E9416050895A0E0C3
:100AD000B0E08093000190930101A0930201B093D4
:100AE00003010895FB01DC0102C005900D92415005
:100AF0005040D8F70895FB01DC018D9101908019D9
:100B00000110D9F3990B0895052E97FB1EF400945C
:100B10000E949B0557FD07D00E94B60507FC03D035
:100B20004EF40C949B0550954095309521953F4F80
:100B30004F4F5F4F089590958095709561957F4FC9
:100B40008F4F9F4F08950E940705A59F900DB49F5A
:100B5000900DA49F800D911D11240895B7FF0C9452
:100B6000A3050E94A305821B930B0895A1E21A2EF0
:100B7000AA1BBB1BFD010DC0AA1FBB1FEE1FFF1F41
:100B8000A217B307E407F50720F0A21BB30BE40B91
:100B9000F50B661F771F881F991F1A9469F76095D8
:100BA0007095809590959B01AC01BD01CF01089592
:040BB000F894FFCFE7
:100BB4000100000050726573696F6E65202A207011
:100BC40061726100696E69636961722E2E2E00493B
:100BD4004E434F52524543544F210003050402042F
:100BE4000300073132334134353642373839432A2A
:040BF4003023440066
:00000001FF
