:100000000C949F000C94BC000C94BC000C94BC009D
:100010000C94BC000C94BC000C94BC000C94BC0070
:100020000C94BC000C94BC000C94BC000C94BC0060
:100030000C94BC000C94BC000C94C8000C94BC0044
:100040000C94BC000C94BC000C94BC000C94BC0040
:100050000C94BC000C94BC000C94BC000C94BC0030
:100060000C94BC000C94BC004172626F6C00426F37
:10007000746F6E004344794D4300436C61764500D4
:10008000466163696C00476166617300486F6A612D
:1000900073004C6942726F004C616E7A61004E6968
:1000A00065766500506552726F0050656345530078
:1000B0005069416E6F005072594B6500525545446E
:1000C000610053455249450053616C5564005361CA
:1000D0006C75640053696C6C61005465636C6100FD
:1000E00056616C6F7200566572646500596E4852B5
:1000F0007A0068415264440073696C6C6100001FAF
:10010000000000001F00001F101010101F00001F33
:10011000181818181F00001F1C1C1C1C1F00001F93
:100120001E1E1E1E1F00001F1F1F1F1F1F00030774
:100130000F1F0F070300181C1E1F1E1C1800112480
:100140001FBECFEFD8E0DEBFCDBF11E0A0E0B1E031
:10015000EAEFF3E102C005900D92AC36B107D9F792
:1001600021E0ACE6B1E001C01D92A538B207E1F78D
:100170000E9432060C94FB090C94000082E084BDBE
:1001800093E095BD99EF97BD80936E0078940895A4
:100190001F920F920FB60F9211242F933F934F93FC
:1001A0005F936F937F938F939F93AF93BF93EF93DF
:1001B000FF9380916C0190916D01A0916E01B091BF
:1001C0006F010196A11DB11D80936C0190936D018B
:1001D000A0936E01B0936F010E94A101FF91EF9176
:1001E000BF91AF919F918F917F916F915F914F914F
:1001F0003F912F910F900FBE0F901F901895CF93A6
:10020000DF93CDB7DEB76F970FB6F894DEBF0FBEA2
:10021000CDBF0E945E0560E080E00E947A0520E18B
:10022000E5E0F1E0CE010196DC0101900D922A9506
:10023000E1F72FE0E5E1F1E0DE01519601900D924A
:100240002A95E1F7FC0101900020E9F73197BF0101
:10025000681B790B0E94620561E080E00E947A05CC
:10026000CE014196FC0101900020E9F73197BF01D2
:10027000681B790B0E9462056F960FB6F894DEBF7B
:100280000FBECDBFDF91CF9108956230A9F06330EA
:1002900019F0613011F51BC0FC0130812181928180
:1002A000822F880F282F220F220F820FF4E63F9F04
:1002B000800D1124890F0DC0FC0120819181822FB6
:1002C000880F282F220F220F820F890F02C0FC01F6
:1002D000808188231CF480E0089580E00895CF9306
:1002E000DF93D82F682F80E00E947A05C0E004C019
:1002F00080E20E943204CF5FC031D0F36D2F80E0E6
:100300000E947A05DF91CF91089510928401109296
:10031000700110927D0110927C0181E080930401B4
:1003200086E0EEE7F1E0DF01982F1D929A95E9F75C
:10033000E6E7F1E0DF011D928A95E9F70E94FF00F0
:1003400008950F931F93CF93DF93CDB7DEB76197D7
:100350000FB6F894DEBF0FBECDBF8091840182300E
:10036000F9F030F4882369F0813009F44EC0B3C14C
:10037000843009F421C108F4BAC0853009F482C17F
:10038000AAC1CE0101960E948903882309F4A3C162
:1003900089818A3209F09FC182E0809384019BC1E8
:1003A00060916C0170916D0180916E0190916F016F
:1003B0000E94FB038EE791E00E94FF030E945E050E
:1003C00060E080E00E947A0565E08EE791E00E949F
:1003D00062052FEF37EA81E6215030408040E1F797
:1003E00000C0000010927D0186E0E6E7F1E0DF0149
:1003F0001D928A95E9F70E945E0560E080E00E9408
:100400007A0581E08093840166C1CE0101960E9445
:100410008903882309F468C0898190917101891743
:1004200009F459C18093710190ED980F9A30D0F47E
:10043000E0917201E330B0F481E08E0F809372019D
:10044000F0E0ED58FE4F908380910401813031F44B
:1004500061E080E00E947A051092040189810E9487
:10046000320439C1833209F036C16091720183E7E9
:1004700091E00E9445019FEB980F9A3120F09FE98F
:10048000980F9A3150F4E0917D01F0E0EA58FE4F68
:10049000808383E0809384011DC0809170018F5F11
:1004A0008093700181E00E946F0161E080E00E9412
:1004B0007A0580917001833068F085E08093840133
:1004C00080916C0190916D01A0916E01B0916F01CE
:1004D00080937C011092720183E0E3E7F1E0DF0199
:1004E0001D928A95E9F7F7C010927101F4C020912E
:1004F0007D01822F90E0FC01EA58FE4F3081FC0123
:10050000E258FE4F8081381329C02F5F20937D0170
:1005100080E00E946F0160E080E00E947A056091B7
:100520007D0186E791E00E94620581E00E946F01F3
:1005300080917D01853071F484E080938401809105
:100540006C0190916D01A0916E01B0916F0180934B
:100550007C01C1C081E080938401BDC080917001A5
:100560008F5F8093700181E00E946F0161E080E005
:100570000E947A056BE084E291E00E94620580911E
:100580007001833070F085E08093840180916C016C
:1005900090916D01A0916E01B0916F0180937C01EB
:1005A0009AC081E08093840161E080E00E947A0536
:1005B00081E00E946F018FC00E945E0560E080E0D4
:1005C0000E947A0569E080E391E00E9462058091D3
:1005D0006C0190916D01A0916E01B0916F0120911D
:1005E0007C01BC01CD01621B71098109910928EED2
:1005F00033E040E050E00E943B065F934F933F930F
:100600002F938AE391E09F938F931F9280E18F93C2
:100610008E010E5F1F4F1F930F930E94D10661E062
:1006200080E00E947A05F80101900020E9F73197F7
:10063000BF01601B710BC8010E946205BFEF23E27E
:1006400034EFB15020403040E1F700C0000080910D
:100650006C0190916D01A0916E01B0916F0120919C
:100660007C01821B9109A109B1090FB6F894DEBF84
:100670000FBECDBF88389341A105B10560F10E943E
:10068000850129C00E945E0560E080E00E947A0535
:1006900068E08AE491E00E9462058FEF93E2A4EFA4
:1006A00081509040A040E1F700C0000080916C01B3
:1006B00090916D01A0916E01B0916F0120917C012C
:1006C000821B9109A109B10988389341A105B1059F
:1006D00010F00E94850161960FB6F894DEBF0FBE40
:1006E000CDBFDF91CF911F910F91089584B1867E88
:1006F00084B985B1896185B98AB18F778AB98BB19F
:1007000080688BB98AB1837C8AB98BB18C638BB9D1
:10071000089560E06BC07AB1462F50E0FA01ED5ABF
:10072000FE4F21E030E0008002C0220F331F0A9408
:10073000E2F7372F322B3AB93BB1209523232BB95F
:1007400020E12A95F1F7E0E03BC0E33031F429B134
:100750002095221F2227221F0FC023B1AE2FB0E009
:10076000A95ABE4F30E00C9002C0359527950A94E7
:10077000E2F771E027272170222309F1F0E0EE0F64
:10078000FF1FEE0FFF1FE55AFE4FE40FF51F2081FC
:10079000FC0120832BB1FA01ED5AFE4F81E090E07D
:1007A000008002C0880F991F0A94E2F7922F982BBD
:1007B0009BB99AB1809589238AB981E00895EF5F4A
:1007C000E43018F27BB1FA01ED5AFE4F21E030E03F
:1007D000008002C0220F331F0A94E2F7372F322B1A
:1007E0003BB93AB1209523232AB96F5F643008F4EE
:1007F00092CF80E00895CB010E94BD060895CF936B
:10080000DF93EC010E94B806AC019C01AFEAB7E4AB
:100810000E945D06281B390B36952795820F931F82
:10082000929582958F7089279F70892769E1689FCB
:100830009001699F300D1124CA01821B930B9927E7
:10084000BC01660F771F860F971FBC01660F771FCD
:1008500068597F4F46E050E0CE010E94C806DF9104
:10086000CF91089565B1982F9074492F50E0559518
:100870004795559547955595479555954795982F83
:100880009078292F30E0022E232F000C221F330BEB
:10089000000C221F331F962F997F492B242B25B93B
:1008A00068B1982F9071492F50E05595479555950F
:1008B000479555954795982F9072292F30E035959B
:1008C00027953595279535952795962F997F492B0F
:1008D000242B28B99BB192609BB99BB191609BB9C5
:1008E00025ED2A95F1F700009BB19E7F9BB99BB146
:1008F0009D7F9BB995ED9A95F1F7000065B120E1D8
:10090000829FC0011124AC0140745527559547952D
:100910005595479555954795559547959C01207850
:100920003327022E232F000C221F330B000C221F13
:10093000331F362F397F432B242B25B948B19C0117
:10094000207133273595279535952795359527952A
:100950008072992795958795959587959595879513
:10096000942F997F292B822B88B98BB182608BB908
:100970008BB181608BB985ED8A95F1F700008BB161
:100980008E7F8BB98BB18D7F8BB995ED9A95F1F7F1
:100990000000089565B1982F9074492F50E0559547
:1009A0004795559547955595479555954795982F52
:1009B0009078292F30E0022E232F000C221F330BBA
:1009C000000C221F331F962F997F492B242B25B90A
:1009D00068B1982F9071492F50E0559547955595DE
:1009E000479555954795982F9072292F30E035956A
:1009F00027953595279535952795962F997F492BDE
:100A0000242B28B99BB191609BB9EFE9FFE03197A6
:100A1000F1F700C000009BB19E7F9BB9EFE9FFE0BA
:100A20003197F1F700C0000065B1F0E18F9FC00180
:100A30001124AC0140745527559547955595479518
:100A400055954795559547959C0120783327022E5B
:100A5000232F000C221F330B000C221F331F362FB5
:100A6000397F432B242B25B948B19C0120713327B2
:100A70003595279535952795359527958072992732
:100A8000959587959595879595958795942F997FB9
:100A9000292B822B88B98BB181608BB98FE99FE0BC
:100AA0000197F1F700C000008BB18E7F8BB9EFE9A1
:100AB000FFE03197F1F700C00000089581E00E9447
:100AC000CA0408950F931F93CF93DF93009769F0A3
:100AD000D62F8C01C0E007C0F801EC0FF11D80811A
:100AE0000E943204CF5FCD17B8F3DF91CF911F91F1
:100AF0000F910895623031F0633031F0613029F4A4
:100B0000805C03C08C5E01C08C5A80680E94CA045D
:100B10000895EF92FF920F931F93CF93DF937C0181
:100B2000862F90E0880F991F880F991F880F991FB3
:100B30008064C0E0D0E00DC0F701EC0FFD1F149100
:100B400001E0080F0E94CA04812F0E9432042196FE
:100B5000802FC830D10580F3DF91CF911F910F9185
:100B6000FF90EF900895CF93DF938FE59AEE019772
:100B7000F1F700C0000085B1897F85B988B1897F10
:100B800088B91BB887B1866087B984B1866084B99B
:100B900084B1866084B987B1866087B98AB1836081
:100BA0008AB985B1897F85B988B1866088B98BB1EA
:100BB00081608BB98FE99FE00197F1F700C00000D9
:100BC0008BB18E7F8BB98FE99FE00197F1F700C061
:100BD000000085B1897F85B988B1866088B98BB1FD
:100BE00081608BB98FE99FE00197F1F700C00000A9
:100BF0008BB18E7F8BB98FE99FE00197F1F700C031
:100C0000000085B1897F85B988B1897F846088B902
:100C10008BB181608BB98FE99FE00197F1F700C03C
:100C200000008BB18E7F8BB98FE99FE00197F1F7C0
:100C300000C0000088E20E94CA048CE00E94CA043E
:100C400060E0C0E00AC0D1E0D60F8C2F90E0825067
:100C50009F4F0E948905C85F6D2FC034A0F3DF91BC
:100C6000CF9108950E9476030E94B3050E94BE00B2
:100C70000E948501FFCFA1E21A2EAA1BBB1BFD011A
:100C80000DC0AA1FBB1FEE1FFF1FA217B307E4076B
:100C9000F50720F0A21BB30BE40BF50B661F771FC3
:100CA000881F991F1A9469F76095709580959095A3
:100CB0009B01AC01BD01CF010895A29FB001B39F7C
:100CC000C001A39F700D811D1124911DB29F700D55
:100CD000811D1124911D08958F929F92AF92BF9212
:100CE000CF92DF92EF92FF92CF93DF93EC01688176
:100CF00079818A819B81611571058105910521F4B6
:100D000064E279ED8BE597E02DE133EF41E050E0CF
:100D10000E94920949015A019B01AC01A7EAB1E482
:100D20000E94B1096B017C01ACEEB4EFA501940106
:100D30000E94BF09DC01CB018C0D9D1DAE1DBF1DA6
:100D4000B7FF03C00197A109B04888839983AA839C
:100D5000BB839F77DF91CF91FF90EF90DF90CF9093
:100D6000BF90AF909F908F9008950E946C06089559
:100D700080E091E00E946C060895A0E0B0E08093CE
:100D8000000190930101A0930201B0930301089523
:100D9000FB01DC0102C005900D9241505040D8F794
:100DA0000895AEE0B0E0E7EDF6E00C94D2090D89CD
:100DB0001E898F89988D26E02C831A83098397FFDB
:100DC00002C080E090E801979E838D83AE01455E6E
:100DD0005F4F698D7A8DCE0101960E9401074D818A
:100DE0005E8157FD0AC02F813885421753070CF4E6
:100DF0009A01F801E20FF31F10822E96E4E00C94A2
:100E0000EE09ABE0B0E0E7E0F7E00C94C4096C0158
:100E10007B018A01FC0117821682838181FFCCC18C
:100E2000CE0101963C01F6019381F70193FD859176
:100E300093FF81917F01882309F4BAC1853239F487
:100E400093FD859193FF81917F01853229F4B6014D
:100E500090E00E94F808E7CF912C212C312CFFE183
:100E6000F315D8F08B3279F038F4803279F0833290
:100E7000A1F4232D20611DC08D3261F0803369F40F
:100E8000232D216016C0832D8260382EE32DE4606F
:100E90003E2E2AC0F32DF8601DC037FC2DC020ED7A
:100EA000280F2A3040F08E32B9F436FC81C1232D50
:100EB0002064322E19C036FE06C08AE0989E200DAE
:100EC0001124922E11C0EAE02E9E200D1124222E14
:100ED000F32DF0623F2E08C08C3621F4832D8068FC
:100EE000382E02C0883641F4F70193FD859193FFB7
:100EF00081917F018111B3CF982F9F7D95549330BD
:100F000028F40C5F1F4F9FE399830DC0833631F0A7
:100F1000833771F0833509F059C021C0F801808111
:100F200089830E5F1F4F88248394912C530113C033
:100F30002801F2E04F0E511CF801A080B18036FE6E
:100F400003C0692D70E002C06FEF7FEFC5010E9402
:100F5000ED084C018201F32DFF773F2E16C02801CA
:100F600022E0420E511CF801A080B18036FE03C081
:100F7000692D70E002C06FEF7FEFC5010E94E208AB
:100F80004C01F32DF0683F2E820133FC1BC0822DF3
:100F900090E088169906B0F4B60180E290E00E94D5
:100FA000F8082A94F4CFF50137FC859137FE81913A
:100FB0005F01B60190E00E94F80821102A9421E018
:100FC000821A91088114910471F7E8C0843611F0F7
:100FD000893641F5F80137FE07C060817181828151
:100FE00093810C5F1F4F08C060817181072E000C38
:100FF000880B990B0E5F1F4FF32DFF763F2E97FF47
:1010000009C090958095709561957F4F8F4F9F4F48
:10101000F0683F2E2AE030E0A3010E943409882EB8
:10102000861845C0853731F4232D2F7EB22E2AE055
:1010300030E025C0932D997FB92E8F36C1F018F47A
:10104000883579F0B5C0803719F0883721F0B0C005
:10105000E92FE061BE2EB4FE0DC0FB2DF460BF2E63
:1010600009C034FE0AC0292F2660B22E06C028E02F
:1010700030E005C020E130E002C020E132E0F801BC
:10108000B7FE07C060817181828193810C5F1F4F21
:1010900006C06081718180E090E00E5F1F4FA30168
:1010A0000E943409882E8618FB2DFF773F2E36FECE
:1010B0000DC0232D2E7FA22E891458F434FE0BC0B0
:1010C00032FC09C0832D8E7EA82E05C0B82CA32C1F
:1010D00003C0B82C01C0B92CA4FE0FC0FE01E80D5E
:1010E000F11D8081803321F49A2D997EA92E09C0AB
:1010F000A2FE06C0B394B39404C08A2D867809F08A
:10110000B394A3FC11C0A0FE06C0B21488F4280C4E
:10111000922C9B180EC0B21460F4B60180E290E0ED
:101120000E94F808B394F7CFB21418F42B1802C039
:10113000982C212CA4FE10C0B60180E390E00E9400
:10114000F808A2FE17C0A1FC03C088E790E002C027
:1011500088E590E0B6010CC08A2D867859F0A1FE92
:1011600002C08BE201C080E2A7FC8DE2B60190E0F4
:101170000E94F808891438F4B60180E390E00E94D8
:10118000F8089A94F7CF8A94F301E80DF11D808155
:10119000B60190E00E94F8088110F5CF222009F4F2
:1011A00042CEB60180E290E00E94F8082A94F6CF81
:1011B000F6018681978102C08FEF9FEF2B96E2E1C7
:1011C0000C94E009FC010590615070400110D8F7C3
:1011D000809590958E0F9F1F0895FC01615070407F
:1011E00001900110D8F7809590958E0F9F1F08955C
:1011F0000F931F93CF93DF93FB01238121FD03C046
:101200008FEF9FEF2CC022FF16C0468157812481AB
:1012100035814217530744F4A081B1819D012F5FAE
:101220003F4F318320838C93268137812F5F3F4F3F
:101230003783268314C08B01EC01FB010084F18508
:10124000E02D0995892BE1F6D80116968D919C9198
:101250001797019617969C938E931697CE01DF9160
:10126000CF911F910F910895FA01AA27283051F1CB
:10127000203181F1E8946F936E7F6E5F7F4F8F4FC7
:101280009F4FAF4FB1E03ED0B4E03CD0670F781F26
:10129000891F9A1FA11D680F791F8A1F911DA11D0B
:1012A0006A0F711D811D911DA11D20D009F4689444
:1012B0003F912AE0269F11243019305D3193DEF6EC
:1012C000CF010895462F4770405D4193B3E00FD0A2
:1012D000C9F7F6CF462F4F70405D4A3318F0495D8D
:1012E00031FD4052419302D0A9F7EACFB4E0A69570
:1012F0009795879577956795BA95C9F70097610592
:10130000710508959B01AC010A2E069457954795E7
:1013100037952795BA95C9F7620F731F841F951FDC
:10132000A01D0895052E97FB1EF400940E94A909A4
:1013300057FD07D00E943B0607FC03D04EF40C94E7
:10134000A90950954095309521953F4F4F4F5F4FDC
:10135000089590958095709561957F4F8F4F9F4F21
:1013600008950E945D06A59F900DB49F900DA49FC7
:10137000800D911D11240895B7FF0C94B1090E94AE
:10138000B109821B930B08952F923F924F925F9267
:101390006F927F928F929F92AF92BF92CF92DF9285
:1013A000EF92FF920F931F93CF93DF93CDB7DEB7EA
:1013B000CA1BDB0B0FB6F894DEBF0FBECDBF09947E
:1013C0002A88398848885F846E847D848C849B84D5
:1013D000AA84B984C884DF80EE80FD800C811B81E3
:1013E000AA81B981CE0FD11D0FB6F894DEBF0FBE12
:0A13F000CDBFED010895F894FFCF82
:1013FA00010000000150726573696F6E65202A2032
:10140A00706172610020202020696E6963696172CF
:10141A002E2E2E00494E434F52524543544F21001F
:10142A00564943544F52494121005469656D706FC2
:10143A003A20256C752073656700444552524F5413
:10144A004121000305040204030007313233413409
:0C145A00353642373839432A302344002D
:00000001FF
