S01700004763634170706C69636174696F6E322E737265635A
S11300000C949F000C94BC000C94BC000C94BC0099
S11300100C94BC000C94BC000C94BC000C94BC006C
S11300200C94BC000C94BC000C94BC000C94BC005C
S11300300C94BC000C94BC000C94C8000C94BC0040
S11300400C94BC000C94BC000C94BC000C94BC003C
S11300500C94BC000C94BC000C94BC000C94BC002C
S11300600C94BC000C94BC004172626F6C00426F33
S1130070746F6E004344794D4300436C61764500D0
S1130080466163696C00476166617300486F6A6129
S113009073004C6942726F004C616E7A61004E6964
S11300A065766500506552726F0050656345530074
S11300B05069416E6F005072594B6500525545446A
S11300C0610053455249450053616C5564005361C6
S11300D06C75640053696C6C61005465636C6100F9
S11300E056616C6F7200566572646500596E4852B1
S11300F07A0068415264440073696C6C6100001FAB
S1130100000000001F00001F101010101F00001F2F
S1130110181818181F00001F1C1C1C1C1F00001F8F
S11301201E1E1E1E1F00001F1F1F1F1F1F00030770
S11301300F1F0F070300181C1E1F1E1C180011247C
S11301401FBECFEFD8E0DEBFCDBF11E0A0E0B1E02D
S1130150ECE0F4E102C005900D92AC35B107D9F79B
S113016021E0ACE5B1E001C01D92A837B207E1F788
S11301700E943B060C94040A0C94000082E084BDA7
S113018093E095BD99EF97BD80936E0078940895A0
S11301901F920F920FB60F9211242F933F934F93F8
S11301A05F936F937F938F939F93AF93BF93EF93DB
S11301B0FF9380915C0190915D01A0915E01B091EB
S11301C05F010196A11DB11D80935C0190935D01B7
S11301D0A0935E01B0935F010E946301FF91EF91D0
S11301E0BF91AF919F918F917F916F915F914F914B
S11301F03F912F910F900FBE0F901F901895DC0127
S113020090E020E030E012C0A901440F551F220FF6
S1130210331F220F331F220F331F240F351FFD01FD
S1130220E90FF11D4081240F311D9F5F961760F384
S11302302038310510F4822F089580E00895CF937B
S1130240DF93D82F682F80E00E948305C0E004C0AC
S113025080E20E943B04CF5FC031D0F36D2F80E079
S11302600E948305DF91CF9108950E94670561E0A4
S113027080E00E94830508950E94670560E080E0A5
S11302800E9483056FE084E091E00E946B0561E0C9
S113029080E00E9483056EE084E191E00E946B059A
S11302A008950E94670560E080E00E94830565E090
S11302B081E791E00E946B0508951092770181E037
S11302C08093640108950F931F93CF93DF93CDB769
S11302D0DEB761970FB6F894DEBF0FBECDBF809135
S11302E07701823009F49FC028F4882361F08130BB
S11302F0B9F1FAC1843009F434C108F4E9C0853095
S113030009F4B3C1F1C180916401882351F01092C2
S113031064010E943C0110926B0110926F011092D3
S11303207001CE0101960E949203882309F4DCC176
S113033089818A3209F0D8C160915C0170915D01B4
S113034080915E0190915F010E94040481E791E035
S11303500E94080481E08093770180936401C4C102
S1130360809164018823A1F0109264010E945101DC
S113037080915C0190915D01A0915E01B0915F015B
S11303808093670190936801A0936901B0936A0117
S113039080915C0190915D01A0915E01B0915F013B
S11303A040916701509168016091690170916A01FF
S11303B0841B950BA60BB70B803D9740A105B10597
S11303C008F492C10E94350180915C0190915D0115
S11303D0A0915E01B0915F018093600190936101EF
S11303E0A0936201B093630180915C0190915D01DF
S11303F0A0915E01B0915F018093670190936801C1
S1130400A0936901B0936A0182E08093770110920E
S1130410660110926B0183E0ECE6F1E0DF011D92CE
S11304208A95E9F761C1CE0101960E94920388235F
S113043009F44BC0898190916601891709F454C16C
S113044080936601833261F560916B01623090F0B4
S11304508CE691E00E94FF008093650110926B018D
S113046081E00E941F0183E08093770181E0809303
S113047064013AC180916F018F5F80936F01109284
S11304806B0181E00E941F0180916F01833008F4A9
S11304902BC185E08093770181E08093640124C1BE
S11304A090ED980F9A3008F01FC1E0916B01E33092
S11304B008F01AC121E02E0F20936B01F0E0E459FB
S11304C0FE4F90830E943B040FC1109266010CC141
S11304D080916401811110926401909165018FEB08
S11304E0890F8A3120F08FE9890F8A31F0F48091E5
S11304F07001E82FF0E0EF58FE4F2081921317C0EF
S113050060E00E948305809165010E943B04809114
S113051070018F5F80937001853059F484E080937B
S1130520770181E080936401DFC081E003C081E052
S113053001C080E0882371F080916F018F5F809308
S11305406F01833038F085E08093770181E08093F8
S11305506401CAC081E00E941F0182E08093770198
S1130560C3C080916401882309F45FC010926401C0
S11305700E94670560E080E00E94830569E083E2F1
S113058091E00E946B0580915C0190915D01A091C6
S11305905E01B0915F0100916001109161012091B1
S11305A0620130916301BC01CD01601B710B820BB0
S11305B0930B28EE33E040E050E00E9444065F9342
S11305C04F933F932F938DE291E09F938F931F92CC
S11305D080E18F938E010E5F1F4F1F930F930E9434
S11305E0DA0661E080E00E948305F80101900020B2
S11305F0E9F73197BF01601B710BC8010E946B05BD
S113060080915C0190915D01A0915E01B0915F01C8
S11306108093670190936801A0936901B0936A0184
S11306200FB6F894DEBF0FBECDBF80915C019091F0
S11306305D01A0915E01B0915F014091670150910D
S113064068016091690170916A01841B950BA60B86
S1130650B70B88389341A105B10508F445C0109241
S1130660770181E0809364013FC080916401882315
S1130670E9F0109264010E94670560E080E00E9446
S1130680830568E08BE391E00E946B0580915C0137
S113069090915D01A0915E01B0915F01809367012B
S11306A090936801A0936901B0936A0180915C0101
S11306B090915D01A0915E01B0915F01409167014D
S11306C0509168016091690170916A01841B950BD6
S11306D0A60BB70B88389341A105B10528F01092F9
S11306E0770181E08093640161960FB6F894DEBFD0
S11306F00FBECDBFDF91CF911F910F91089584B1AB
S1130700867E84B985B1896185B98AB18F778AB9C2
S11307108BB180688BB98AB1837C8AB98BB18C63C5
S11307208BB9089560E06BC07AB1462F50E0FA01AE
S1130730EC5BFE4F21E030E0008002C0220F331F4B
S11307400A94E2F7372F322B3AB93BB12095232391
S11307502BB920E12A95F1F7E0E03BC0E33031F416
S113076029B12095221F2227221F0FC023B1AE2FAB
S1130770B0E0A85BBE4F30E00C9002C035952795E1
S11307800A94E2F771E027272170222309F1F0E0AF
S1130790EE0FFF1FEE0FFF1FE45BFE4FE40FF51F8C
S11307A02081FC0120832BB1FA01EC5BFE4F81E038
S11307B090E0008002C0880F991F0A94E2F7922FFC
S11307C0982B9BB99AB1809589238AB981E00895C1
S11307D0EF5FE43018F27BB1FA01EC5BFE4F21E0ED
S11307E030E0008002C0220F331F0A94E2F7372F53
S11307F0322B3BB93AB1209523232AB96F5F643079
S113080008F492CF80E00895CB010E94C6060895B3
S1130810CF93DF93EC010E94C106AC019C01AFEAC7
S1130820B7E40E946606281B390B36952795820F7C
S1130830931F929582958F7089279F70892769E10C
S1130840689F9001699F300D1124CA01821B930B8C
S11308509927BC01660F771F860F971FBC01660F8F
S1130860771F68597F4F46E050E0CE010E94D106C1
S1130870DF91CF91089565B1982F9074492F50E07E
S1130880559547955595479555954795559547954C
S1130890982F9078292F30E0022E232F000C221F4E
S11308A0330B000C221F331F962F997F492B242BC7
S11308B025B968B1982F9071492F50E05595479507
S11308C05595479555954795982F9072292F30E067
S11308D0359527953595279535952795962F997FA5
S11308E0492B242B28B99BB192609BB99BB1916091
S11308F09BB925ED2A95F1F700009BB19E7F9BB92A
S11309009BB19D7F9BB995ED9A95F1F7000065B178
S113091020E1829FC0011124AC01407455275595F4
S113092047955595479555954795559547959C01F8
S113093020783327022E232F000C221F330B000CA8
S1130940221F331F362F397F432B242B25B948B15F
S11309509C01207133273595279535952795359535
S1130960279580729927959587959595879595955F
S11309708795942F997F292B822B88B98BB182601C
S11309808BB98BB181608BB985ED8A95F1F7000045
S11309908BB18E7F8BB98BB18D7F8BB995ED9A9589
S11309A0F1F70000089565B1982F9074492F50E035
S11309B0559547955595479555954795559547951B
S11309C0982F9078292F30E0022E232F000C221F1D
S11309D0330B000C221F331F962F997F492B242B96
S11309E025B968B1982F9071492F50E055954795D6
S11309F05595479555954795982F9072292F30E036
S1130A00359527953595279535952795962F997F73
S1130A10492B242B28B99BB191609BB9EFE9FFE0E6
S1130A203197F1F700C000009BB19E7F9BB9EFE9BD
S1130A30FFE03197F1F700C0000065B1F0E18F9F4E
S1130A40C0011124AC01407455275595479555951F
S1130A50479555954795559547959C01207833279B
S1130A60022E232F000C221F330B000C221F331FD6
S1130A70362F397F432B242B25B948B19C01207193
S1130A803327359527953595279535952795807284
S1130A909927959587959595879595958795942FFD
S1130AA0997F292B822B88B98BB181608BB98FE90F
S1130AB09FE00197F1F700C000008BB18E7F8BB9E6
S1130AC0EFE9FFE03197F1F700C00000089581E0FD
S1130AD00E94D30408950F931F93CF93DF9300973D
S1130AE069F0D62F8C01C0E007C0F801EC0FF11DAE
S1130AF080810E943B04CF5FCD17B8F3DF91CF9183
S1130B001F910F910895623031F0633031F06130FC
S1130B1029F4805C03C08C5E01C08C5A80680E94FA
S1130B20D3040895EF92FF920F931F93CF93DF9313
S1130B307C01862F90E0880F991F880F991F880FDA
S1130B40991F8064C0E0D0E00DC0F701EC0FFD1FD9
S1130B50149101E0080F0E94D304812F0E943B04EA
S1130B602196802FC830D10580F3DF91CF911F915A
S1130B700F91FF90EF900895CF93DF938FE59AEE56
S1130B800197F1F700C0000085B1897F85B988B16C
S1130B90897F88B91BB887B1866087B984B18660BC
S1130BA084B984B1866084B987B1866087B98AB113
S1130BB083608AB985B1897F85B988B1866088B92F
S1130BC08BB181608BB98FE99FE00197F1F700C089
S1130BD000008BB18E7F8BB98FE99FE00197F1F70D
S1130BE000C0000085B1897F85B988B1866088B965
S1130BF08BB181608BB98FE99FE00197F1F700C059
S1130C0000008BB18E7F8BB98FE99FE00197F1F7DC
S1130C1000C0000085B1897F85B988B1897F84606F
S1130C2088B98BB181608BB98FE99FE00197F1F7A7
S1130C3000C000008BB18E7F8BB98FE99FE00197D4
S1130C40F1F700C0000088E20E94D3048CE00E9407
S1130C50D30460E0C0E00AC0D1E0D60F8C2F90E04E
S1130C6082509F4F0E949205C85F6D2FC034A0F33D
S1130C70DF91CF9108950E947F030E94BC050E94DA
S1130C80BE000E945D01FFCFA1E21A2EAA1BBB1B6E
S1130C90FD010DC0AA1FBB1FEE1FFF1FA217B30744
S1130CA0E407F50720F0A21BB30BE40BF50B661F5A
S1130CB0771F881F991F1A9469F76095709580951E
S1130CC090959B01AC01BD01CF010895A29FB00195
S1130CD0B39FC001A39F700D811D1124911DB29F6C
S1130CE0700D811D1124911D08958F929F92AF92D2
S1130CF0BF92CF92DF92EF92FF92CF93DF93EC01FA
S1130D00688179818A819B816115710581059105CD
S1130D1021F464E279ED8BE597E02DE133EF41E0D6
S1130D2050E00E949B0949015A019B01AC01A7EACA
S1130D30B1E40E94BA096B017C01ACEEB4EFA501E9
S1130D4094010E94C809DC01CB018C0D9D1DAE1DD0
S1130D50BF1DB7FF03C00197A109B04888839983D9
S1130D60AA83BB839F77DF91CF91FF90EF90DF90B1
S1130D70CF90BF90AF909F908F9008950E9475067A
S1130D80089580E091E00E9475060895A0E0B0E027
S1130D908093000190930101A0930201B093030199
S1130DA00895FB01DC0102C005900D9241505040B2
S1130DB0D8F70895AEE0B0E0E0EEF6E00C94DB097D
S1130DC00D891E898F89988D26E02C831A830983C7
S1130DD097FF02C080E090E801979E838D83AE0167
S1130DE0455E5F4F698D7A8DCE0101960E940A0798
S1130DF04D815E8157FD0AC02F8138854217530704
S1130E000CF49A01F801E20FF31F10822E96E4E02D
S1130E100C94F709ABE0B0E0E0E1F7E00C94CD0905
S1130E206C017B018A01FC0117821682838181FF98
S1130E30CCC1CE0101963C01F6019381F70193FDEB
S1130E40859193FF81917F01882309F4BAC185328A
S1130E5039F493FD859193FF81917F01853229F4C3
S1130E60B60190E00E940109E7CF912C212C312C8E
S1130E70FFE1F315D8F08B3279F038F4803279F051
S1130E808332A1F4232D20611DC08D3261F08033A3
S1130E9069F4232D216016C0832D8260382EE32D42
S1130EA0E4603E2E2AC0F32DF8601DC037FC2DC02F
S1130EB020ED280F2A3040F08E32B9F436FC81C17F
S1130EC0232D2064322E19C036FE06C08AE0989E77
S1130ED0200D1124922E11C0EAE02E9E200D112423
S1130EE0222EF32DF0623F2E08C08C3621F4832D80
S1130EF08068382E02C0883641F4F70193FD85914D
S1130F0093FF81917F018111B3CF982F9F7D9554D9
S1130F10933028F40C5F1F4F9FE399830DC08336F1
S1130F2031F0833771F0833509F059C021C0F801DD
S1130F30808189830E5F1F4F88248394912C5301F1
S1130F4013C02801F2E04F0E511CF801A080B180BB
S1130F5036FE03C0692D70E002C06FEF7FEFC5015C
S1130F600E94F6084C018201F32DFF773F2E16C034
S1130F70280122E0420E511CF801A080B18036FE07
S1130F8003C0692D70E002C06FEF7FEFC5010E94BE
S1130F90EB084C01F32DF0683F2E820133FC1BC09B
S1130FA0822D90E088169906B0F4B60180E290E0B4
S1130FB00E9401092A94F4CFF50137FC859137FE8C
S1130FC081915F01B60190E00E94010921102A94E9
S1130FD021E0821A91088114910471F7E8C08436E3
S1130FE011F0893641F5F80137FE07C0608171813F
S1130FF0828193810C5F1F4F08C060817181072E2D
S1131000000C880B990B0E5F1F4FF32DFF763F2EBC
S113101097FF09C090958095709561957F4F8F4F8C
S11310209F4FF0683F2E2AE030E0A3010E943D0963
S1131030882E861845C0853731F4232D2F7EB22E95
S11310402AE030E025C0932D997FB92E8F36C1F068
S113105018F4883579F0B5C0803719F0883721F055
S1131060B0C0E92FE061BE2EB4FE0DC0FB2DF460CC
S1131070BF2E09C034FE0AC0292F2660B22E06C036
S113108028E030E005C020E130E002C020E132E099
S1131090F801B7FE07C060817181828193810C5F82
S11310A01F4F06C06081718180E090E00E5F1F4F8A
S11310B0A3010E943D09882E8618FB2DFF773F2E41
S11310C036FE0DC0232D2E7FA22E891458F434FE33
S11310D00BC032FC09C0832D8E7EA82E05C0B82C0F
S11310E0A32C03C0B82C01C0B92CA4FE0FC0FE0170
S11310F0E80DF11D8081803321F49A2D997EA92E6B
S113110009C0A2FE06C0B394B39404C08A2D8678A5
S113111009F0B394A3FC11C0A0FE06C0B21488F475
S1131120280C922C9B180EC0B21460F4B60180E215
S113113090E00E940109B394F7CFB21418F42B186D
S113114002C0982C212CA4FE10C0B60180E390E0CC
S11311500E940109A2FE17C0A1FC03C088E790E029
S113116002C088E590E0B6010CC08A2D867859F05B
S1131170A1FE02C08BE201C080E2A7FC8DE2B601B1
S113118090E00E940109891438F4B60180E390E0EC
S11311900E9401099A94F7CF8A94F301E80DF11D96
S11311A08081B60190E00E9401098110F5CF2220D0
S11311B009F442CEB60180E290E00E9401092A942B
S11311C0F6CFF6018681978102C08FEF9FEF2B96B1
S11311D0E2E10C94E909FC010590615070400110B2
S11311E0D8F7809590958E0F9F1F0895FC0161504C
S11311F0704001900110D8F7809590958E0F9F1F35
S113120008950F931F93CF93DF93FB01238121FD57
S113121003C08FEF9FEF2CC022FF16C04681578179
S1131220248135814217530744F4A081B1819D0183
S11312302F5F3F4F318320838C93268137812F5F2B
S11312403F4F3783268314C08B01EC01FB010084DC
S1131250F185E02D0995892BE1F6D80116968D913B
S11312609C911797019617969C938E931697CE018F
S1131270DF91CF911F910F910895FA01AA27283089
S113128051F1203181F1E8946F936E7F6E5F7F4F4F
S11312908F4F9F4FAF4FB1E03ED0B4E03CD0670FCB
S11312A0781F891F9A1FA11D680F791F8A1F911D1E
S11312B0A11D6A0F711D811D911DA11D20D009F46E
S11312C068943F912AE0269F11243019305D3193B0
S11312D0DEF6CF010895462F4770405D4193B3E099
S11312E00FD0C9F7F6CF462F4F70405D4A3318F040
S11312F0495D31FD4052419302D0A9F7EACFB4E0F1
S1131300A6959795879577956795BA95C9F70097A8
S11313106105710508959B01AC010A2E0694579549
S1131320479537952795BA95C9F7620F731F841FA0
S1131330951FA01D0895052E97FB1EF400940E948E
S1131340B20957FD07D00E94440607FC03D04EF4AF
S11313500C94B20950954095309521953F4F4F4FCD
S11313605F4F089590958095709561957F4F8F4F4D
S11313709F4F08950E946606A59F900DB49F900DFF
S1131380A49F800D911D11240895B7FF0C94BA09F0
S11313900E94BA09821B930B08952F923F924F9299
S11313A05F926F927F928F929F92AF92BF92CF92F1
S11313B0DF92EF92FF920F931F93CF93DF93CDB7FA
S11313C0DEB7CA1BDB0B0FB6F894DEBF0FBECDBF72
S11313D009942A88398848885F846E847D848C8443
S11313E09B84AA84B984C884DF80EE80FD800C814C
S11313F01B81AA81B981CE0FD11D0FB6F894DEBF2F
S10F14000FBECDBFED010895F894FFCF9E
S113140C0100000050726573696F6E65202A2070AC
S113141C6172610020202020696E69636961722EFB
S113142C2E2E00564943544F5249412100546965AC
S113143C6D706F3A20256C75207300444552524FE1
S113144C54412100030504020403000731323341E3
S10F145C34353642373839432A302344F3
S9030000FC
