:100000000C949F000C94BC000C94BC000C94BC009D
:100010000C94BC000C94BC000C94BC000C94BC0070
:100020000C94BC000C94BC000C94BC000C94BC0060
:100030000C94BC000C94BC000C94C8000C94BC0044
:100040000C94BC000C94BC000C94BC000C94BC0040
:100050000C94BC000C94BC000C94BC000C94BC0030
:100060000C94BC000C94BC004172626F6C00426F37
:10007000746F6E004344794D4300436C61764500D4
:10008000466163696C00476166617300486F6A612D
:1000900073004C6942726F004C616E7A61004E6968
:1000A00065766500506552726F0050656345530078
:1000B0005069416E6F005072594B6500525545446E
:1000C000610053455249450053616C5564005361CA
:1000D0006C75640053696C6C61005465636C6100FD
:1000E00056616C6F7200566572646500596E4852B5
:1000F0007A0068415264440073696C6C6100001FAF
:10010000000000001F00001F101010101F00001F33
:10011000181818181F00001F1C1C1C1C1F00001F93
:100120001E1E1E1E1F00001F1F1F1F1F1F00030774
:100130000F1F0F070300181C1E1F1E1C1800112480
:100140001FBECFEFD8E0DEBFCDBF11E0A0E0B1E031
:10015000E0EFF3E102C005900D92AC35B107D9F79D
:1001600021E0ACE5B1E001C01D92A437B207E1F790
:100170000E942D060C94F6090C94000082E084BDC8
:1001800093E095BD99EF97BD80936E0078940895A4
:100190001F920F920FB60F9211242F933F934F93FC
:1001A0005F936F937F938F939F93AF93BF93EF93DF
:1001B000FF9380915C0190915D01A0915E01B091EF
:1001C0005F010196A11DB11D80935C0190935D01BB
:1001D000A0935E01B0935F010E946301FF91EF91D4
:1001E000BF91AF919F918F917F916F915F914F914F
:1001F0003F912F910F900FBE0F901F901895DC012B
:1002000090E020E030E012C0A901440F551F220FFA
:10021000331F220F331F220F331F240F351FFD0101
:10022000E90FF11D4081240F311D9F5F961760F388
:100230002038310510F4822F089580E00895CF937F
:10024000DF93D82F682F80E00E947505C0E004C0BE
:1002500080E20E942D04CF5FC031D0F36D2F80E08B
:100260000E947505DF91CF9108950E94590561E0C4
:1002700080E00E94750508950E94590560E080E0C5
:100280000E9475056FE085E091E00E945D0561E0E8
:1002900080E00E9475056EE085E191E00E945D05B9
:1002A00008950E94590560E080E00E94750565E0B0
:1002B0008DE691E00E945D0508951092730181E042
:1002C0008093600108950F931F93CF93DF93CDB771
:1002D000DEB761970FB6F894DEBF0FBECDBF809139
:1002E0007301823009F48FC028F4882361F08130D3
:1002F000B9F1ECC1843009F424C108F4D9C08530C7
:1003000009F4A5C1E3C180916001882351F01092E6
:1003100060010E943C011092670110926B011092E3
:100320006C01CE0101960E948403882309F4CEC19A
:1003300089818A3209F0CAC160915C0170915D01C6
:1003400080915E0190915F010E94F6038DE691E03D
:100350000E94FA0381E08093730180936001B6C12B
:10036000809160018823A1F0109260010E945101E8
:1003700080915C0190915D01A0915E01B0915F015F
:100380008093630190936401A0936501B09366012B
:1003900080915C0190915D01A0915E01B0915F013F
:1003A0004091630150916401609165017091660113
:1003B000841B950BA60BB70B803D9740A105B1059B
:1003C00008F484C10E94350180915C0190915D0127
:1003D000A0915E01B0915F018093630190936401ED
:1003E000A0936501B093660182E08093730110923F
:1003F00062011092670183E0E8E6F1E0DF011D92FF
:100400008A95E9F763C1CE0101960E94840388238F
:1004100009F44BC0898190916201891709F456C192
:1004200080936201833261F560916701623090F0E0
:1004300088E691E00E94FF008093610110926701BD
:1004400081E00E941F0183E08093730181E080932B
:1004500060013CC180916B018F5F80936B011092B2
:10046000670181E00E941F0180916B01833008F4D5
:100470002DC185E08093730181E08093600126C1E6
:1004800090ED980F9A3008F021C1E0916701E330B8
:1004900008F01CC121E02E0F20936701F0E0E8591D
:1004A000FE4F90830E942D0411C1109262010EC173
:1004B00080916001811110926001909161018FEB38
:1004C000890F8A3120F08FE9890F8A31F0F4809109
:1004D0006C01E82FF0E0E359FE4F2081921317C022
:1004E00060E00E947505809161010E942D04809159
:1004F0006C018F5F80936C01853059F484E08093A8
:10050000730181E080936001E1C081E003C081E07C
:1005100001C080E0882371F080916B018F5F809330
:100520006B01833038F085E08093730181E0809324
:100530006001CCC081E00E941F0182E080937301C2
:10054000C5C0809160018823E9F0109260010E948B
:10055000590560E080E00E94750569E084E291E061
:100560000E945D0580915C0190915D01A0915E010A
:10057000B0915F018093630190936401A093650142
:10058000B093660180915C0190915D01A0915E0144
:10059000B0915F01009163011091640120916501A8
:1005A00030916601BC01CD01601B710B820B930B76
:1005B00028EE33E040E050E00E94360680910401CE
:1005C000821729F1209304011F922F938EE291E06C
:1005D0009F938F931F9280E18F938E010E5F1F4F29
:1005E0001F930F930E94CC0681E00E941F01F80127
:1005F00001900020E9F73197BF01601B710BC80122
:100600000E945D050FB6F894DEBF0FBECDBF80918E
:100610005C0190915D01A0915E01B0915F014091FC
:100620006301509164016091650170916601841BC2
:10063000950BA60BB70B88389341A105B10508F4BB
:1006400045C01092730181E0809360013FC08091AA
:1006500060018823E9F0109260010E94590560E072
:1006600080E00E94750568E08BE391E00E945D05E3
:1006700080915C0190915D01A0915E01B0915F015C
:100680008093630190936401A0936501B093660128
:1006900080915C0190915D01A0915E01B0915F013C
:1006A0004091630150916401609165017091660110
:1006B000841B950BA60BB70B88389341A105B10598
:1006C00028F01092730181E08093600161960FB66B
:1006D000F894DEBF0FBECDBFDF91CF911F910F9178
:1006E000089584B1867E84B985B1896185B98AB15E
:1006F0008F778AB98BB180688BB98AB1837C8AB9CC
:100700008BB18C638BB9089560E06BC07AB1462FD2
:1007100050E0FA01EC5BFE4F21E030E0008002C0C7
:10072000220F331F0A94E2F7372F322B3AB93BB12D
:10073000209523232BB920E12A95F1F7E0E03BC077
:10074000E33031F429B12095221F2227221F0FC048
:1007500023B1AE2FB0E0A85BBE4F30E00C9002C0DA
:10076000359527950A94E2F771E027272170222317
:1007700009F1F0E0EE0FFF1FEE0FFF1FE45BFE4FED
:10078000E40FF51F2081FC0120832BB1FA01EC5B03
:10079000FE4F81E090E0008002C0880F991F0A940C
:1007A000E2F7922F982B9BB99AB1809589238AB949
:1007B00081E00895EF5FE43018F27BB1FA01EC5B61
:1007C000FE4F21E030E0008002C0220F331F0A9468
:1007D000E2F7372F322B3BB93AB1209523232AB9C0
:1007E0006F5F643008F492CF80E00895CB010E94DF
:1007F000B8060895CF93DF93EC010E94B306AC01D5
:100800009C01AFEAB7E40E945806281B390B3695C5
:100810002795820F931F929582958F7089279F70DD
:10082000892769E1689F9001699F300D1124CA01F1
:10083000821B930B9927BC01660F771F860F971FAA
:10084000BC01660F771F68597F4F46E050E0CE012C
:100850000E94C306DF91CF91089565B1982F9074DF
:10086000492F50E05595479555954795559547958E
:1008700055954795982F9078292F30E0022E232FF9
:10088000000C221F330B000C221F331F962F997F61
:10089000492B242B25B968B1982F9071492F50E02E
:1008A000559547955595479555954795982F90722D
:1008B000292F30E03595279535952795359527953E
:1008C000962F997F492B242B28B99BB192609BB915
:1008D0009BB191609BB925ED2A95F1F700009BB182
:1008E0009E7F9BB99BB19D7F9BB995ED9A95F1F742
:1008F000000065B120E1829FC0011124AC01407469
:10090000552755954795559547955595479555952F
:1009100047959C0120783327022E232F000C221F9D
:10092000330B000C221F331F362F397F432B242B10
:1009300025B948B19C012071332735952795359508
:100940002795359527958072992795958795959543
:10095000879595958795942F997F292B822B88B918
:100960008BB182608BB98BB181608BB985ED8A9533
:10097000F1F700008BB18E7F8BB98BB18D7F8BB976
:1009800095ED9A95F1F70000089565B1982F907450
:10099000492F50E05595479555954795559547955D
:1009A00055954795982F9078292F30E0022E232FC8
:1009B000000C221F330B000C221F331F962F997F30
:1009C000492B242B25B968B1982F9071492F50E0FD
:1009D000559547955595479555954795982F9072FC
:1009E000292F30E03595279535952795359527950D
:1009F000962F997F492B242B28B99BB191609BB9E5
:100A0000EFE9FFE03197F1F700C000009BB19E7F56
:100A10009BB9EFE9FFE03197F1F700C0000065B145
:100A2000F0E18F9FC0011124AC014074552755950A
:100A300047955595479555954795559547959C01EB
:100A400020783327022E232F000C221F330B000C9B
:100A5000221F331F362F397F432B242B25B948B152
:100A60009C01207133273595279535952795359528
:100A70002795807299279595879595958795959552
:100A80008795942F997F292B822B88B98BB1816010
:100A90008BB98FE99FE00197F1F700C000008BB19F
:100AA0008E7F8BB9EFE9FFE03197F1F700C00000CE
:100AB000089581E00E94C50408950F931F93CF937A
:100AC000DF93009769F0D62F8C01C0E007C0F801D2
:100AD000EC0FF11D80810E942D04CF5FCD17B8F37C
:100AE000DF91CF911F910F910895623031F0633003
:100AF00031F0613029F4805C03C08C5E01C08C5AF7
:100B000080680E94C5040895EF92FF920F931F938F
:100B1000CF93DF937C01862F90E0880F991F880F79
:100B2000991F880F991F8064C0E0D0E00DC0F701C5
:100B3000EC0FFD1F149101E0080F0E94C504812FE6
:100B40000E942D042196802FC830D10580F3DF91BB
:100B5000CF911F910F91FF90EF900895CF93DF9366
:100B60008FE59AEE0197F1F700C0000085B1897F0B
:100B700085B988B1897F88B91BB887B1866087B984
:100B800084B1866084B984B1866084B987B1866097
:100B900087B98AB183608AB985B1897F85B988B1FF
:100BA000866088B98BB181608BB98FE99FE001972E
:100BB000F1F700C000008BB18E7F8BB98FE99FE009
:100BC0000197F1F700C0000085B1897F85B988B130
:100BD000866088B98BB181608BB98FE99FE00197FE
:100BE000F1F700C000008BB18E7F8BB98FE99FE0D9
:100BF0000197F1F700C0000085B1897F85B988B100
:100C0000897F846088B98BB181608BB98FE99FE05F
:100C10000197F1F700C000008BB18E7F8BB98FE98F
:100C20009FE00197F1F700C0000088E20E94C50430
:100C30008CE00E94C50460E0C0E00AC0D1E0D60F9D
:100C40008C2F90E082509F4F0E948405C85F6D2FCB
:100C5000C034A0F3DF91CF9108950E9471030E94E8
:100C6000AE050E94BE000E945D01FFCFA1E21A2ED8
:100C7000AA1BBB1BFD010DC0AA1FBB1FEE1FFF1F40
:100C8000A217B307E407F50720F0A21BB30BE40B90
:100C9000F50B661F771F881F991F1A9469F76095D7
:100CA0007095809590959B01AC01BD01CF01089591
:100CB000A29FB001B39FC001A39F700D811D11249D
:100CC000911DB29F700D811D1124911D08958F9269
:100CD0009F92AF92BF92CF92DF92EF92FF92CF930B
:100CE000DF93EC01688179818A819B8161157105AF
:100CF0008105910521F464E279ED8BE597E02DE122
:100D000033EF41E050E00E948D0949015A019B01F7
:100D1000AC01A7EAB1E40E94AC096B017C01ACEE26
:100D2000B4EFA50194010E94BA09DC01CB018C0D3E
:100D30009D1DAE1DBF1DB7FF03C00197A109B0489F
:100D400088839983AA83BB839F77DF91CF91FF909C
:100D5000EF90DF90CF90BF90AF909F908F900895CD
:100D60000E946706089580E091E00E94670608955A
:100D7000A0E0B0E08093000190930101A0930201F4
:100D8000B09303010895FB01DC0102C005900D92B0
:100D900041505040D8F70895AEE0B0E0E2EDF6E003
:100DA0000C94CD090D891E898F89988D26E02C839E
:100DB0001A83098397FF02C080E090E801979E8321
:100DC0008D83AE01455E5F4F698D7A8DCE010196B0
:100DD0000E94FC064D815E8157FD0AC02F81388537
:100DE000421753070CF49A01F801E20FF31F108227
:100DF0002E96E4E00C94E909ABE0B0E0E2E0F7E025
:100E00000C94BF096C017B018A01FC0117821682D8
:100E1000838181FFCCC1CE0101963C01F601938113
:100E2000F70193FD859193FF81917F01882309F458
:100E3000BAC1853239F493FD859193FF81917F0189
:100E4000853229F4B60190E00E94F308E7CF912C97
:100E5000212C312CFFE1F315D8F08B3279F038F4E6
:100E6000803279F08332A1F4232D20611DC08D32B0
:100E700061F0803369F4232D216016C0832D8260D8
:100E8000382EE32DE4603E2E2AC0F32DF8601DC0FD
:100E900037FC2DC020ED280F2A3040F08E32B9F4F7
:100EA00036FC81C1232D2064322E19C036FE06C0C7
:100EB0008AE0989E200D1124922E11C0EAE02E9E09
:100EC000200D1124222EF32DF0623F2E08C08C3607
:100ED00021F4832D8068382E02C0883641F4F70152
:100EE00093FD859193FF81917F018111B3CF982F5D
:100EF0009F7D9554933028F40C5F1F4F9FE3998397
:100F00000DC0833631F0833771F0833509F059C055
:100F100021C0F801808189830E5F1F4F882483944C
:100F2000912C530113C02801F2E04F0E511CF8011F
:100F3000A080B18036FE03C0692D70E002C06FEF63
:100F40007FEFC5010E94E8084C018201F32DFF7775
:100F50003F2E16C0280122E0420E511CF801A0804D
:100F6000B18036FE03C0692D70E002C06FEF7FEFE5
:100F7000C5010E94DD084C01F32DF0683F2E82016F
:100F800033FC1BC0822D90E088169906B0F4B601A0
:100F900080E290E00E94F3082A94F4CFF50137FC38
:100FA000859137FE81915F01B60190E00E94F308C0
:100FB00021102A9421E0821A91088114910471F77A
:100FC000E8C0843611F0893641F5F80137FE07C0D4
:100FD00060817181828193810C5F1F4F08C06081A5
:100FE0007181072E000C880B990B0E5F1F4FF32D9C
:100FF000FF763F2E97FF09C090958095709561957B
:101000007F4F8F4F9F4FF0683F2E2AE030E0A301C3
:101010000E942F09882E861845C0853731F4232D6C
:101020002F7EB22E2AE030E025C0932D997FB92E75
:101030008F36C1F018F4883579F0B5C0803719F0D3
:10104000883721F0B0C0E92FE061BE2EB4FE0DC09C
:10105000FB2DF460BF2E09C034FE0AC0292F266084
:10106000B22E06C028E030E005C020E130E002C02A
:1010700020E132E0F801B7FE07C060817181828112
:1010800093810C5F1F4F06C06081718180E090E00A
:101090000E5F1F4FA3010E942F09882E8618FB2D7B
:1010A000FF773F2E36FE0DC0232D2E7FA22E8914F2
:1010B00058F434FE0BC032FC09C0832D8E7EA82E5E
:1010C00005C0B82CA32C03C0B82C01C0B92CA4FEB9
:1010D0000FC0FE01E80DF11D8081803321F49A2DAF
:1010E000997EA92E09C0A2FE06C0B394B39404C091
:1010F0008A2D867809F0B394A3FC11C0A0FE06C027
:10110000B21488F4280C922C9B180EC0B21460F410
:10111000B60180E290E00E94F308B394F7CFB214D6
:1011200018F42B1802C0982C212CA4FE10C0B60174
:1011300080E390E00E94F308A2FE17C0A1FC03C068
:1011400088E790E002C088E590E0B6010CC08A2DE7
:10115000867859F0A1FE02C08BE201C080E2A7FCB4
:101160008DE2B60190E00E94F308891438F4B601CC
:1011700080E390E00E94F3089A94F7CF8A94F301F9
:10118000E80DF11D8081B60190E00E94F308811006
:10119000F5CF222009F442CEB60180E290E00E9411
:1011A000F3082A94F6CFF6018681978102C08FEF6B
:1011B0009FEF2B96E2E10C94DB09FC010590615056
:1011C00070400110D8F7809590958E0F9F1F08955D
:1011D000FC016150704001900110D8F78095909506
:1011E0008E0F9F1F08950F931F93CF93DF93FB01E3
:1011F000238121FD03C08FEF9FEF2CC022FF16C07B
:1012000046815781248135814217530744F4A081D8
:10121000B1819D012F5F3F4F318320838C932681C5
:1012200037812F5F3F4F3783268314C08B01EC013A
:10123000FB010084F185E02D0995892BE1F6D801A9
:1012400016968D919C911797019617969C938E9365
:101250001697CE01DF91CF911F910F910895FA015A
:10126000AA27283051F1203181F1E8946F936E7FE5
:101270006E5F7F4F8F4F9F4FAF4FB1E03ED0B4E0D6
:101280003CD0670F781F891F9A1FA11D680F791F17
:101290008A1F911DA11D6A0F711D811D911DA11D28
:1012A00020D009F468943F912AE0269F1124301938
:1012B000305D3193DEF6CF010895462F4770405DD3
:1012C0004193B3E00FD0C9F7F6CF462F4F70405D82
:1012D0004A3318F0495D31FD4052419302D0A9F7DD
:1012E000EACFB4E0A6959795879577956795BA95D7
:1012F000C9F700976105710508959B01AC010A2E9D
:1013000006945795479537952795BA95C9F7620F73
:10131000731F841F951FA01D0895052E97FB1EF4B3
:1013200000940E94A40957FD07D00E94360607FCCE
:1013300003D04EF40C94A409509540953095219516
:101340003F4F4F4F5F4F08959095809570956195F1
:101350007F4F8F4F9F4F08950E945806A59F900D75
:10136000B49F900DA49F800D911D11240895B7FF87
:101370000C94AC090E94AC09821B930B08952F9228
:101380003F924F925F926F927F928F929F92AF9215
:10139000BF92CF92DF92EF92FF920F931F93CF9362
:1013A000DF93CDB7DEB7CA1BDB0B0FB6F894DEBFF9
:1013B0000FBECDBF09942A88398848885F846E841F
:1013C0007D848C849B84AA84B984C884DF80EE8069
:1013D000FD800C811B81AA81B981CE0FD11D0FB672
:1013E000F894DEBF0FBECDBFED010895F894FFCF96
:1013F00001000000FF50726573696F6E65202A203E
:10140000706172610020202020696E6963696172D9
:101410002E2E2E00564943544F5249412100546903
:10142000656D706F3A202575207300444552524F08
:101430005441210003050402040300073132334103
:0C14400034353642373839432A30234413
:00000001FF
